{
  "_format": "hh-sol-artifact-1",
  "contractName": "Whitelist",
  "sourceName": "contracts/Whitelist.sol",
  "abi": [
    {
      "inputs": [
        {
          "internalType": "uint256",
          "name": "_numMaxWhitelist",
          "type": "uint256"
        }
      ],
      "stateMutability": "nonpayable",
      "type": "constructor"
    },
    {
      "inputs": [],
      "name": "handleWhiteList",
      "outputs": [],
      "stateMutability": "nonpayable",
      "type": "function"
    },
    {
      "inputs": [],
      "name": "numMaxWhitelist",
      "outputs": [
        {
          "internalType": "uint256",
          "name": "",
          "type": "uint256"
        }
      ],
      "stateMutability": "view",
      "type": "function"
    }
  ],
  "bytecode": "0x608060405234801561001057600080fd5b5060405161042d38038061042d8339818101604052810190610032919061007a565b80600081905550506100a7565b600080fd5b6000819050919050565b61005781610044565b811461006257600080fd5b50565b6000815190506100748161004e565b92915050565b6000602082840312156100905761008f61003f565b5b600061009e84828501610065565b91505092915050565b610377806100b66000396000f3fe608060405234801561001057600080fd5b50600436106100365760003560e01c8063540ee9af1461003b578063c448cf6614610045575b600080fd5b610043610063565b005b61004d6101a7565b60405161005a91906101c6565b60405180910390f35b600054600254106100a9576040517f08c379a00000000000000000000000000000000000000000000000000000000081526004016100a09061023e565b60405180910390fd5b600160003373ffffffffffffffffffffffffffffffffffffffff1673ffffffffffffffffffffffffffffffffffffffff16815260200190815260200160002060009054906101000a900460ff1615610136576040517f08c379a000000000000000000000000000000000000000000000000000000000815260040161012d906102aa565b60405180910390fd5b60018060003373ffffffffffffffffffffffffffffffffffffffff1673ffffffffffffffffffffffffffffffffffffffff16815260200190815260200160002060006101000a81548160ff021916908315150217905550600260008154809291906101a0906102f9565b9190505550565b60005481565b6000819050919050565b6101c0816101ad565b82525050565b60006020820190506101db60008301846101b7565b92915050565b600082825260208201905092915050565b7f5175616e746974792041646472657373204d61782057686974656c6973740000600082015250565b6000610228601e836101e1565b9150610233826101f2565b602082019050919050565b600060208201905081810360008301526102578161021b565b9050919050565b7f596f752065786973742057686974656c69737400000000000000000000000000600082015250565b60006102946013836101e1565b915061029f8261025e565b602082019050919050565b600060208201905081810360008301526102c381610287565b9050919050565b7f4e487b7100000000000000000000000000000000000000000000000000000000600052601160045260246000fd5b6000610304826101ad565b91507fffffffffffffffffffffffffffffffffffffffffffffffffffffffffffffffff8203610336576103356102ca565b5b60018201905091905056fea264697066735822122013fc10878f88452e46dfa65781538ff908801ab46e17932e433cdb32e5e6fcba64736f6c63430008120033",
  "linkReferences": {},
  "deployedLinkReferences": {}
}