{
  "_format": "hh-sol-artifact-1",
  "contractName": "Whitelist",
  "sourceName": "contracts/Whitelist.sol",
  "abi": [
    {
      "inputs": [
        {
          "internalType": "uint256",
          "name": "_numMaxWhitelist",
          "type": "uint256"
        }
      ],
      "stateMutability": "nonpayable",
      "type": "constructor"
    },
    {
      "inputs": [],
      "name": "checkWhiteList",
      "outputs": [
        {
          "internalType": "bool",
          "name": "",
          "type": "bool"
        }
      ],
      "stateMutability": "view",
      "type": "function"
    },
    {
      "inputs": [],
      "name": "getNumberWhiteList",
      "outputs": [
        {
          "internalType": "uint256",
          "name": "",
          "type": "uint256"
        }
      ],
      "stateMutability": "view",
      "type": "function"
    },
    {
      "inputs": [],
      "name": "handleWhiteList",
      "outputs": [],
      "stateMutability": "nonpayable",
      "type": "function"
    },
    {
      "inputs": [],
      "name": "listWhiteList",
      "outputs": [
        {
          "internalType": "address[]",
          "name": "",
          "type": "address[]"
        }
      ],
      "stateMutability": "view",
      "type": "function"
    },
    {
      "inputs": [],
      "name": "numMaxWhitelist",
      "outputs": [
        {
          "internalType": "uint256",
          "name": "",
          "type": "uint256"
        }
      ],
      "stateMutability": "view",
      "type": "function"
    },
    {
      "inputs": [
        {
          "internalType": "uint256",
          "name": "",
          "type": "uint256"
        }
      ],
      "name": "whitelistedAddresses",
      "outputs": [
        {
          "internalType": "address",
          "name": "",
          "type": "address"
        }
      ],
      "stateMutability": "view",
      "type": "function"
    }
  ],
  "bytecode": "0x608060405234801561001057600080fd5b506040516108423803806108428339818101604052810190610032919061007a565b80600081905550506100a7565b600080fd5b6000819050919050565b61005781610044565b811461006257600080fd5b50565b6000815190506100748161004e565b92915050565b6000602082840312156100905761008f61003f565b5b600061009e84828501610065565b91505092915050565b61078c806100b66000396000f3fe608060405234801561001057600080fd5b50600436106100625760003560e01c80631165c2061461006757806323e6ea5f146100855780634ee27f66146100a3578063540ee9af146100c1578063ba4e5c49146100cb578063c448cf66146100fb575b600080fd5b61006f610119565b60405161007c919061040b565b60405180910390f35b61008d610123565b60405161009a9190610516565b60405180910390f35b6100ab6101b1565b6040516100b89190610553565b60405180910390f35b6100c9610205565b005b6100e560048036038101906100e0919061059f565b6103ad565b6040516100f291906105db565b60405180910390f35b6101036103ec565b604051610110919061040b565b60405180910390f35b6000600154905090565b606060038054806020026020016040519081016040528092919081815260200182805480156101a757602002820191906000526020600020905b8160009054906101000a900473ffffffffffffffffffffffffffffffffffffffff1673ffffffffffffffffffffffffffffffffffffffff168152602001906001019080831161015d575b5050505050905090565b6000600260003373ffffffffffffffffffffffffffffffffffffffff1673ffffffffffffffffffffffffffffffffffffffff16815260200190815260200160002060009054906101000a900460ff16905090565b6000546001541061024b576040517f08c379a000000000000000000000000000000000000000000000000000000000815260040161024290610653565b60405180910390fd5b600260003373ffffffffffffffffffffffffffffffffffffffff1673ffffffffffffffffffffffffffffffffffffffff16815260200190815260200160002060009054906101000a900460ff16156102d8576040517f08c379a00000000000000000000000000000000000000000000000000000000081526004016102cf906106bf565b60405180910390fd5b6003339080600181540180825580915050600190039060005260206000200160009091909190916101000a81548173ffffffffffffffffffffffffffffffffffffffff021916908373ffffffffffffffffffffffffffffffffffffffff1602179055506001600260003373ffffffffffffffffffffffffffffffffffffffff1673ffffffffffffffffffffffffffffffffffffffff16815260200190815260200160002060006101000a81548160ff021916908315150217905550600160008154809291906103a69061070e565b9190505550565b600381815481106103bd57600080fd5b906000526020600020016000915054906101000a900473ffffffffffffffffffffffffffffffffffffffff1681565b60005481565b6000819050919050565b610405816103f2565b82525050565b600060208201905061042060008301846103fc565b92915050565b600081519050919050565b600082825260208201905092915050565b6000819050602082019050919050565b600073ffffffffffffffffffffffffffffffffffffffff82169050919050565b600061047d82610452565b9050919050565b61048d81610472565b82525050565b600061049f8383610484565b60208301905092915050565b6000602082019050919050565b60006104c382610426565b6104cd8185610431565b93506104d883610442565b8060005b838110156105095781516104f08882610493565b97506104fb836104ab565b9250506001810190506104dc565b5085935050505092915050565b6000602082019050818103600083015261053081846104b8565b905092915050565b60008115159050919050565b61054d81610538565b82525050565b60006020820190506105686000830184610544565b92915050565b600080fd5b61057c816103f2565b811461058757600080fd5b50565b60008135905061059981610573565b92915050565b6000602082840312156105b5576105b461056e565b5b60006105c38482850161058a565b91505092915050565b6105d581610472565b82525050565b60006020820190506105f060008301846105cc565b92915050565b600082825260208201905092915050565b7f5175616e746974792041646472657373204d61782057686974656c6973740000600082015250565b600061063d601e836105f6565b915061064882610607565b602082019050919050565b6000602082019050818103600083015261066c81610630565b9050919050565b7f596f752065786973742057686974656c69737400000000000000000000000000600082015250565b60006106a96013836105f6565b91506106b482610673565b602082019050919050565b600060208201905081810360008301526106d88161069c565b9050919050565b7f4e487b7100000000000000000000000000000000000000000000000000000000600052601160045260246000fd5b6000610719826103f2565b91507fffffffffffffffffffffffffffffffffffffffffffffffffffffffffffffffff820361074b5761074a6106df565b5b60018201905091905056fea26469706673582212208014ab1e131fd01437af2cc61277324c8288aa3b6a249dbef6415b597a6b514a64736f6c63430008120033",
  "linkReferences": {},
  "deployedLinkReferences": {}
}